{
  "contractName": "VehicleMessageContract",
  "abi": [
    {
      "anonymous": false,
      "inputs": [
        {
          "indexed": true,
          "internalType": "uint256",
          "name": "messageId",
          "type": "uint256"
        },
        {
          "indexed": false,
          "internalType": "uint256",
          "name": "vehicleId",
          "type": "uint256"
        },
        {
          "indexed": false,
          "internalType": "string",
          "name": "alertType",
          "type": "string"
        }
      ],
      "name": "MessageAdded",
      "type": "event"
    },
    {
      "anonymous": false,
      "inputs": [
        {
          "indexed": true,
          "internalType": "uint256",
          "name": "vehicleId",
          "type": "uint256"
        },
        {
          "indexed": false,
          "internalType": "uint256",
          "name": "score",
          "type": "uint256"
        }
      ],
      "name": "VehicleAdded",
      "type": "event"
    },
    {
      "inputs": [],
      "name": "messageCount",
      "outputs": [
        {
          "internalType": "uint256",
          "name": "",
          "type": "uint256"
        }
      ],
      "stateMutability": "view",
      "type": "function",
      "constant": true
    },
    {
      "inputs": [
        {
          "internalType": "uint256",
          "name": "",
          "type": "uint256"
        }
      ],
      "name": "messages",
      "outputs": [
        {
          "internalType": "uint256",
          "name": "id",
          "type": "uint256"
        },
        {
          "internalType": "uint256",
          "name": "vehicleId",
          "type": "uint256"
        },
        {
          "internalType": "string",
          "name": "alertType",
          "type": "string"
        },
        {
          "internalType": "uint256",
          "name": "numAck",
          "type": "uint256"
        },
        {
          "internalType": "uint256",
          "name": "numNack",
          "type": "uint256"
        }
      ],
      "stateMutability": "view",
      "type": "function",
      "constant": true
    },
    {
      "inputs": [],
      "name": "vehicleCount",
      "outputs": [
        {
          "internalType": "uint256",
          "name": "",
          "type": "uint256"
        }
      ],
      "stateMutability": "view",
      "type": "function",
      "constant": true
    },
    {
      "inputs": [
        {
          "internalType": "uint256",
          "name": "",
          "type": "uint256"
        }
      ],
      "name": "vehicles",
      "outputs": [
        {
          "internalType": "uint256",
          "name": "id",
          "type": "uint256"
        },
        {
          "internalType": "uint256",
          "name": "score",
          "type": "uint256"
        }
      ],
      "stateMutability": "view",
      "type": "function",
      "constant": true
    },
    {
      "inputs": [
        {
          "internalType": "uint256",
          "name": "_id",
          "type": "uint256"
        },
        {
          "internalType": "uint256",
          "name": "_score",
          "type": "uint256"
        }
      ],
      "name": "addVehicle",
      "outputs": [],
      "stateMutability": "nonpayable",
      "type": "function"
    },
    {
      "inputs": [
        {
          "internalType": "uint256",
          "name": "_id",
          "type": "uint256"
        },
        {
          "internalType": "uint256",
          "name": "_newScore",
          "type": "uint256"
        }
      ],
      "name": "updateVehicleScore",
      "outputs": [],
      "stateMutability": "nonpayable",
      "type": "function"
    },
    {
      "inputs": [
        {
          "internalType": "uint256",
          "name": "_id",
          "type": "uint256"
        },
        {
          "internalType": "uint256",
          "name": "_vehicleId",
          "type": "uint256"
        },
        {
          "internalType": "string",
          "name": "_alertType",
          "type": "string"
        }
      ],
      "name": "addMessage",
      "outputs": [],
      "stateMutability": "nonpayable",
      "type": "function"
    },
    {
      "inputs": [
        {
          "internalType": "uint256",
          "name": "_vehicleId",
          "type": "uint256"
        }
      ],
      "name": "getVehicleScore",
      "outputs": [
        {
          "internalType": "uint256",
          "name": "",
          "type": "uint256"
        }
      ],
      "stateMutability": "view",
      "type": "function",
      "constant": true
    }
  ],
  "bytecode": "0x608060405234801561001057600080fd5b50610bbc806100206000396000f3fe608060405234801561001057600080fd5b50600436106100885760003560e01c80638676b2831161005b5780638676b283146101175780639970493714610147578063b8ba95fa14610165578063fb5350061461019657610088565b80630d80fefd1461008d57806318b4e7d5146100c1578063318a35b0146100dd5780633dbcc8d1146100f9575b600080fd5b6100a760048036038101906100a291906106eb565b6101b2565b6040516100b8959493929190610933565b60405180910390f35b6100db60048036038101906100d69190610750565b610270565b005b6100f760048036038101906100f29190610714565b6103a2565b005b610101610493565b60405161010e91906108bf565b60405180910390f35b610131600480360381019061012c91906106eb565b610499565b60405161013e91906108bf565b60405180910390f35b61014f61050f565b60405161015c91906108bf565b60405180910390f35b61017f600480360381019061017a91906106eb565b610515565b60405161018d92919061090a565b60405180910390f35b6101b060048036038101906101ab9190610714565b610539565b005b60016020528060005260406000206000915090508060000154908060010154908060020180546101e190610a56565b80601f016020809104026020016040519081016040528092919081815260200182805461020d90610a56565b801561025a5780601f1061022f5761010080835404028352916020019161025a565b820191906000526020600020905b81548152906001019060200180831161023d57829003601f168201915b5050505050908060030154908060040154905085565b8160008084815260200190815260200160002060000154146102c7576040517f08c379a00000000000000000000000000000000000000000000000000000000081526004016102be9061087f565b60405180910390fd5b6040518060a0016040528084815260200183815260200182815260200160008152602001600081525060016000858152602001908152602001600020600082015181600001556020820151816001015560408201518160020190805190602001906103339291906105cb565b5060608201518160030155608082015181600401559050506003600081548092919061035e90610a88565b9190505550827f7343c5945fb9994d979fb307bfe005b639688e232f6a59423880c9d3e6564ab583836040516103959291906108da565b60405180910390a2505050565b60008110156103e6576040517f08c379a00000000000000000000000000000000000000000000000000000000081526004016103dd9061089f565b60405180910390fd5b81600080848152602001908152602001600020600001541461043d576040517f08c379a00000000000000000000000000000000000000000000000000000000081526004016104349061087f565b60405180910390fd5b8060008084815260200190815260200160002060010181905550817f1cdf4bf0a070475f545014c4063b21c700f044799a4f8cc255cf07d0caa8e3428260405161048791906108bf565b60405180910390a25050565b60035481565b60008160008084815260200190815260200160002060000154146104f2576040517f08c379a00000000000000000000000000000000000000000000000000000000081526004016104e99061087f565b60405180910390fd5b600080838152602001908152602001600020600101549050919050565b60025481565b60006020528060005260406000206000915090508060000154908060010154905082565b60405180604001604052808381526020018281525060008084815260200190815260200160002060008201518160000155602082015181600101559050506002600081548092919061058a90610a88565b9190505550817f1cdf4bf0a070475f545014c4063b21c700f044799a4f8cc255cf07d0caa8e342826040516105bf91906108bf565b60405180910390a25050565b8280546105d790610a56565b90600052602060002090601f0160209004810192826105f95760008555610640565b82601f1061061257805160ff1916838001178555610640565b82800160010185558215610640579182015b8281111561063f578251825591602001919060010190610624565b5b50905061064d9190610651565b5090565b5b8082111561066a576000816000905550600101610652565b5090565b600061068161067c846109be565b61098d565b90508281526020810184848401111561069957600080fd5b6106a4848285610a14565b509392505050565b600082601f8301126106bd57600080fd5b81356106cd84826020860161066e565b91505092915050565b6000813590506106e581610b6f565b92915050565b6000602082840312156106fd57600080fd5b600061070b848285016106d6565b91505092915050565b6000806040838503121561072757600080fd5b6000610735858286016106d6565b9250506020610746858286016106d6565b9150509250929050565b60008060006060848603121561076557600080fd5b6000610773868287016106d6565b9350506020610784868287016106d6565b925050604084013567ffffffffffffffff8111156107a157600080fd5b6107ad868287016106ac565b9150509250925092565b60006107c2826109ee565b6107cc81856109f9565b93506107dc818560208601610a23565b6107e581610b5e565b840191505092915050565b60006107fd6017836109f9565b91507f56656869636c6520646f6573206e6f742065786973742e0000000000000000006000830152602082019050919050565b600061083d601b836109f9565b91507f53636f7265206d757374206265206e6f6e2d6e656761746976652e00000000006000830152602082019050919050565b61087981610a0a565b82525050565b60006020820190508181036000830152610898816107f0565b9050919050565b600060208201905081810360008301526108b881610830565b9050919050565b60006020820190506108d46000830184610870565b92915050565b60006040820190506108ef6000830185610870565b818103602083015261090181846107b7565b90509392505050565b600060408201905061091f6000830185610870565b61092c6020830184610870565b9392505050565b600060a0820190506109486000830188610870565b6109556020830187610870565b818103604083015261096781866107b7565b90506109766060830185610870565b6109836080830184610870565b9695505050505050565b6000604051905081810181811067ffffffffffffffff821117156109b4576109b3610b2f565b5b8060405250919050565b600067ffffffffffffffff8211156109d9576109d8610b2f565b5b601f19601f8301169050602081019050919050565b600081519050919050565b600082825260208201905092915050565b6000819050919050565b82818337600083830152505050565b60005b83811015610a41578082015181840152602081019050610a26565b83811115610a50576000848401525b50505050565b60006002820490506001821680610a6e57607f821691505b60208210811415610a8257610a81610b00565b5b50919050565b6000610a9382610a0a565b91507fffffffffffffffffffffffffffffffffffffffffffffffffffffffffffffffff821415610ac657610ac5610ad1565b5b600182019050919050565b7f4e487b7100000000000000000000000000000000000000000000000000000000600052601160045260246000fd5b7f4e487b7100000000000000000000000000000000000000000000000000000000600052602260045260246000fd5b7f4e487b7100000000000000000000000000000000000000000000000000000000600052604160045260246000fd5b6000601f19601f8301169050919050565b610b7881610a0a565b8114610b8357600080fd5b5056fea264697066735822122095f3f8463844f4e7e173aa657277a1bac673c8dbf6d76cf546eca9496e5887c864736f6c63430008000033",
  "immutableReferences": {},
  "source": "// SPDX-License-Identifier: MIT\r\npragma solidity ^0.8.0;\r\n\r\ncontract VehicleMessageContract {\r\n    struct Vehicle {\r\n        uint256 id;\r\n        uint256 score; //  10\r\n    }\r\n\r\n    struct Message {\r\n        uint256 id;\r\n        uint256 vehicleId;\r\n        string alertType;\r\n        uint256 numAck;\r\n        uint256 numNack;\r\n    }\r\n\r\n    mapping(uint256 => Vehicle) public vehicles;\r\n    mapping(uint256 => Message) public messages;\r\n\r\n    uint256 public vehicleCount;\r\n    uint256 public messageCount;\r\n\r\n    event VehicleAdded(uint256 indexed vehicleId, uint256 score);\r\n    event MessageAdded(uint256 indexed messageId, uint256 vehicleId, string alertType);\r\n\r\n    function addVehicle(uint256 _id, uint256 _score) public {\r\n        vehicles[_id] = Vehicle(_id, _score);\r\n        vehicleCount++;\r\n        emit VehicleAdded(_id, _score);\r\n    }\r\n\r\n    function updateVehicleScore(uint256 _id, uint256 _newScore) public {\r\n        require(_newScore >= 0, \"Score must be non-negative.\");\r\n        require(vehicles[_id].id == _id, \"Vehicle does not exist.\");\r\n        vehicles[_id].score = _newScore;\r\n        emit VehicleAdded(_id, _newScore);\r\n    }\r\n\r\n    function addMessage(uint256 _id, uint256 _vehicleId, string memory _alertType) public {\r\n        require(vehicles[_vehicleId].id == _vehicleId, \"Vehicle does not exist.\");\r\n        messages[_id] = Message(_id, _vehicleId, _alertType, 0, 0);\r\n        messageCount++;\r\n        emit MessageAdded(_id, _vehicleId, _alertType);\r\n    }\r\n    function getVehicleScore(uint256 _vehicleId) public view returns (uint256) {\r\n        require(vehicles[_vehicleId].id == _vehicleId, \"Vehicle does not exist.\");\r\n        return vehicles[_vehicleId].score;\r\n    }\r\n}",
  "sourcePath": "D:\\github\\IoV-Trust Mangement\\contracts\\Score.sol",
  "compiler": {
    "name": "solc",
    "version": "0.8.0+commit.c7dfd78e.Emscripten.clang"
  },
  "schemaVersion": "3.4.16",
  "updatedAt": "2023-10-23T02:47:39.074Z",
  "networkType": "ethereum",
  "devdoc": {
    "kind": "dev",
    "methods": {},
    "version": 1
  },
  "userdoc": {
    "kind": "user",
    "methods": {},
    "version": 1
  }
}